S01200004C6564426C696E6B65722E7372656336
S11300000C9436000C944B000C944B000C944B0055
S11300100C944B000C944B000C944B000C944B0030
S11300200C944B000C944B000C944B000C944B0020
S11300300C944B000C944B000C944B000C944B0010
S11300400C944B000C944B000C944B000C944B0000
S11300500C944B000C944B000C944B000C944B00F0
S11300600C944B000C944B000C944B0011241FBEB9
S1130070CFEFD4E0DEBFCDBF11E0A0E0B1E0E2E518
S1130080F6E002C005900D92AC30B107D9F70E949A
S11300907E010C9427030C940000CF93DF93CDB71B
S11300A0DEB762970FB6F894DEBF0FBECDBF9A8B52
S11300B0898B1A82198277C080E090E0A0E8BFE3C0
S11300C08B839C83AD83BE8320E030E04AE755E414
S11300D06B817C818D819E810E945102DC01CB0168
S11300E08F839887A987BA8720E030E040E85FE3F0
S11300F06F81788589859A850E94CB0188232CF4A9
S113010081E090E09C878B873FC020E03FEF4FE782
S113011057E46F81788589859A850E944C02181668
S11301204CF520E030E040E251E46B817C818D812C
S11301309E810E945102DC01CB01BC01CD010E94D1
S1130140D001DC01CB019C878B870FC080E991E053
S11301509E878D878D859E850197F1F79E878D8774
S11301608B859C8501979C878B878B859C85892BA8
S113017069F714C06F81788589859A850E94D001BA
S1130180DC01CB019C878B878B859C85988B8F8723
S11301908F8598890197F1F7988B8F8789819A8148
S11301A001969A83898329813A8189899A892817B2
S11301B039070CF481CF000062960FB6F894DEBFC5
S11301C00FBECDBFDF91CF910895CF93DF9300D0C1
S11301D000D0CDB7DEB79C838B838B819C819C013F
S11301E0990F440B550B80E291EAA7E0B0E0BC0103
S11301F0CD010E94E602DA01C9019A83898385E26E
S113020090E020E2FC01208389819A810E944D00C4
S113021085E290E0FC01108289819A810E944D0060
S113022000000F900F900F900F90DF91CF910895E1
S1130230CF93DF9300D000D0CDB7DEB79C838B8300
S11302408B819C819C01990F440B550B80E291EAB0
S1130250A7E0B0E0BC01CD010E94E602DA01C901C9
S11302609A8389838BE290E028E0FC0120838981D2
S11302709A810E944D008BE290E0FC0110828981FA
S11302809A810E944D008BE290E024E0FC012083DF
S113029089819A810E944D008BE290E0FC011082DA
S11302A089819A810E944D008BE290E022E0FC015A
S11302B0208389819A810E944D008BE290E0FC01A9
S11302C0108289819A810E944D008BE290E021E0A6
S11302D0FC01208389819A810E944D008BE290E089
S11302E0FC01108289819A810E944D0000000F90C8
S11302F00F900F900F90DF91CF910895CF93DF93DC
S1130300CDB7DEB72E970FB6F894DEBF0FBECDBFC4
S11303108AE290E02FE0FC0120838BE290E02FE062
S1130320FC01208384E290E020E2FC0120838CE045
S1130330E0E0F1E0DE01139601900D928A95E1F779
S11303401A82198223C089819A81880F991F9E017C
S11303502F5F3F4F820F931F0296FC018081918192
S11303600E94E50089819A81880F991F9E012F5F61
S11303703F4F820F931F0296FC01808191810E945E
S1130380180189819A8101969A83898389819A8146
S11303900697CCF2D5CF0E94FF0108F481E00895BE
S11303A00E942B0288F09F5798F0B92F9927B751D4
S11303B0B0F0E1F0660F771F881F991F1AF0BA9505
S11303C0C9F714C0B13091F00E944502B1E008951C
S11303D00C944502672F782F8827B85F39F0B93F0E
S11303E0CCF3869577956795B395D9F73EF49095B8
S11303F08095709561957F4F8F4F9F4F0895990F0A
S11304000008550FAA0BE0E8FEEF16161706E807DA
S1130410F907C0F012161306E407F50798F0621BFB
S1130420730B840B950B39F40A2661F0232B242BD0
S1130430252B21F408950A2609F4A140A6958FEFEF
S1130440811D811D089557FD9058440F551F59F083
S11304505F3F71F04795880F97FB991F61F09F3FAD
S113046079F087950895121613061406551FF2CFD6
S11304704695F1DF08C0161617061806991FF1CF26
S113048086957105610508940895E894BB2766274D
S11304907727CB0197F908950E94FF0108F48FEFA5
S11304A008950E9464020C94D5020E94C70238F099
S11304B00E94CE0220F0952311F00C94BE020C94FD
S11304C0C40211240C9446020E94230270F3959FE7
S11304D0C1F3950F50E0551F629FF001729FBB2737
S11304E0F00DB11D639FAA27F00DB11DAA1F649FD3
S11304F06627B00DA11D661F829F2227B00DA11D86
S1130500621F739FB00DA11D621F839FA00D611D0B
S1130510221F749F3327A00D611D231F849F600D2C
S1130520211D822F762F6A2F11249F5750409AF055
S1130530F1F088234AF0EE0FFF1FBB1F661F771FE1
S1130540881F91505040A9F79E3F510580F00C94AC
S1130550BE020C9446025F3FE4F3983ED4F38695C2
S113056077956795B795F795E7959F5FC1F7FE2B4C
S1130570880F911D9695879597F9089597F99F6728
S113058080E870E060E008959FEF80EC0895002417
S11305900A941616170618060906089500240A94E4
S11305A012161306140605060895092E0394000C6A
S11305B011F4882352F0BB0F40F4BF2B11F460FFF9
S11305C004C06F5F7F4F8F4F9F4F0895052E97FB99
S11305D01EF400940E94FD0257FD07D00E940503FB
S11305E007FC03D04EF40C94FD02509540953095D1
S11305F021953F4F4F4F5F4F08959095809570958B
S113060061957F4F8F4F9F4F0895A1E21A2EAA1B29
S1130610BB1BFD010DC0AA1FBB1FEE1FFF1FA217AE
S1130620B307E407F50720F0A21BB30BE40BF50BAB
S1130630661F771F881F991F1A9469F76095709534
S1130640809590959B01AC01BD01CF010895F8946C
S1050650FFCFD6
S10F065220A140428084000980844042C2
S9030000FC
