S0100000496E7465726163742E73726563DA
S11300000C9436000C9440000C9440000C94400076
S11300100C9440000C9440000C9440000C9440005C
S11300200C9440000C9440000C9440000C9440004C
S11300300C9440000C9440000C9440000C9440003C
S11300400C9440000C9440000C9440000C9440002C
S11300500C9440000C9440000C9440000C9440001C
S11300600C9440000C9440000C94400011241FBEDA
S1130070CFEFD4E0DEBFCDBF0E945A000C948200C3
S11300800C94000085B5856085BD16BC80E284B9FA
S11300900895181619066CF420E030E0E9EFF0E05A
S11300A03197F1F700C000002F5F3F4F821793078D
S11300B0A9F708958FE08AB90E94420001E012E096
S11300C0D4E0C8E080E0A89B02C08F5FA89A893280
S11300D0D0F38BB180278BB980E39BE10E94490068
S11300E08BB181278BB980E39BE10E9449008BB1DE
S11300F08D278BB980E39BE10E9449008BB18C274B
S10B01008BB9E0CFF894FFCFA6
S9030000FC
