S01300004A6F79737469636B6C65642E737265638C
S11300000C9436000C9440000C9440000C94400076
S11300100C9440000C9440000C9440000C9440005C
S11300200C9440000C9440000C9440000C9440004C
S11300300C9440000C9440000C9440000C9440003C
S11300400C9440000C9440000C9440000C9440002C
S11300500C9440000C9440000C9440000C9440001C
S11300600C9440000C9440000C94400011241FBEDA
S1130070CFEFD4E0DEBFCDBF0E9453000C945800F4
S11300800C94000080E48AB983E884BD82E085BDD5
S113009083EE80937A0080E280937C0008958091BF
S11300A0790087BD08950E9442000E944F00FDCF51
S10700B0F894FFCFEE
S9030000FC
