S0190000554152545F6F6E654368617261637465722E73726563A1
S11300000C9436000C9440000C9440000C94400076
S11300100C9440000C9440000C9440000C9440005C
S11300200C9440000C9440000C9440000C9440004C
S11300300C9440000C9440000C9440000C9440003C
S11300400C9440000C9440000C9440000C9440002C
S11300500C9440000C9440000C9440000C9440001C
S11300600C9440000C9440000C94400011241FBEDA
S1130070CFEFD4E0DEBFCDBF0E946B000C947200C2
S11300800C9400001092C00087E690E09093C500A5
S11300908093C400E2ECF0E0108283E080838081EE
S11300A086608083E1ECF0E08081886080838081D9
S11300B0806180830895E0ECF0E0908195FFFDCFAE
S11300C08093C6000895E0ECF0E080818823ECF78B
S11300D08091C60008950E9442000E9463000E941D
S10B00E05B00FBCFF894FFCF95
S9030000FC
