S0160000554152545F70726F7065726C65792E7372656391
S11300000C9436000C9453000C9453000C9453003D
S11300100C9453000C9453000C9453000C94530010
S11300200C9453000C9453000C9453000C94530000
S11300300C9453000C9453000C9453000C945300F0
S11300400C9453000C9453000C9453000C945300E0
S11300500C9453000C9453000C9453000C945300D0
S11300600C9453000C9453000C94530011241FBEA1
S1130070CFEFD4E0DEBFCDBF11E0A0E0B1E0E4E912
S1130080F6E002C005900D92AC30B107D9F721E03B
S1130090ACE0B1E001C01D92A231B207E1F70E94C9
S11300A03F010C9448030C940000CF93DF93CDB729
S11300B0DEB780EC90E0FC01108284EC90E027E64F
S11300C030E0FC013183208382EC90E0FC0110825B
S11300D082EC90E023E0FC01208382EC90E022ECAF
S11300E030E0F90120812660FC01208381EC90E05E
S11300F021EC30E0F90120812860FC01208381ECAF
S113010090E021EC30E0F90120812061FC012083A2
S11301100000DF91CF910895CF93DF931F92CDB765
S1130120DEB78983000080EC90E0FC018081882F99
S113013090E080729927892BB1F386EC90E02981B5
S1130140FC01208300000F90DF91CF910895CF939D
S1130150DF93CDB7DEB7000080EC90E0FC01808136
S11301608823D4F786EC90E0FC018081DF91CF9165
S11301700895CF93DF93CDB7DEB72E970FB6F894DB
S1130180DEBF0FBECDBF80E090E0AAEFB3E4898369
S11301909A83AB83BC8320E030E04AE755E469816D
S11301A07A818B819C810E941B02DC01CB018D83AF
S11301B09E83AF83B88720E030E040E85FE36D8141
S11301C07E818F8198850E94950188232CF481E09B
S11301D090E09A8789873FC020E03FEF4FE757E4DC
S11301E06D817E818F8198850E94160218164CF5C8
S11301F020E030E040E251E469817A818B819C8186
S11302000E941B02DC01CB01BC01CD010E949A01BA
S1130210DC01CB019A8789870FC080E991E09C8734
S11302208B878B859C850197F1F79C878B878985C4
S11302309A8501979A87898789859A85892B69F791
S113024014C06D817E818F8198850E949A01DC01A2
S1130250CB019A87898789859A859E878D878D8525
S11302609E850197F1F79E878D8700002E960FB625
S1130270F894DEBF0FBECDBFDF91CF910895CF9329
S1130280DF93CDB7DEB7CB51D1400FB6F894DEBFC4
S11302900FBECDBF0E945500CE0193952EE0FC0108
S11302A0322F11923A95E9F7CE01939522E0FC01A1
S11302B02383CE0193952CE830E0FC01318720871D
S11302C0CE01939590930F0180930E01CE01825F2E
S11302D09E4F2EE0FC01322F11923A95E9F7CE01A0
S11302E0825F9E4F21E0FC012383CE01825F9E4FFB
S11302F027EA30E0FC0133872287CE01825F9E4FDC
S113030090930D0180930C0180E091E00E94DA0249
S1130310CE0101960E94B0020E94B900CE0101965E
S11303200E94DA020E94B900F3CF0E94C90108F4C6
S113033081E008950E94F50188F09F5798F0B92F45
S11303409927B751B0F0E1F0660F771F881F991F06
S11303501AF0BA95C9F714C0B13091F00E940F0297
S1130360B1E008950C940F02672F782F8827B85FA7
S113037039F0B93FCCF3869577956795B395D9F75E
S11303803EF490958095709561957F4F8F4F9F4F68
S11303900895990F0008550FAA0BE0E8FEEF161612
S11303A01706E807F907C0F012161306E407F50765
S11303B098F0621B730B840B950B39F40A2661F0D9
S11303C0232B242B252B21F408950A2609F4A1407C
S11303D0A6958FEF811D811D089557FD9058440FF8
S11303E0551F59F05F3F71F04795880F97FB991F90
S11303F061F09F3F79F0879508951216130614064D
S1130400551FF2CF4695F1DF08C0161617061806D9
S1130410991FF1CF86957105610508940895E894B4
S1130420BB2766277727CB0197F908950E94C90156
S113043008F48FEF08950E942E020C949F020E94EC
S1130440910238F00E94980220F0952311F00C9448
S113045088020C948E0211240C9410020E94ED0167
S113046070F3959FC1F3950F50E0551F629FF00103
S1130470729FBB27F00DB11D639FAA27F00DB11D1C
S1130480AA1F649F6627B00DA11D661F829F2227A5
S1130490B00DA11D621F739FB00DA11D621F839F2C
S11304A0A00D611D221F749F3327A00D611D231F02
S11304B0849F600D211D822F762F6A2F11249F5750
S11304C050409AF0F1F088234AF0EE0FFF1FBB1F53
S11304D0661F771F881F91505040A9F79E3F510512
S11304E080F00C9488020C9410025F3FE4F3983E71
S11304F0D4F3869577956795B795F795E7959F5FBC
S1130500C1F7FE2B880F911D9695879597F908954D
S113051097F99F6780E870E060E008959FEF80ECB2
S1130520089500240A941616170618060906089555
S113053000240A9412161306140605060895092EBB
S11305400394000C11F4882352F0BB0F40F4BF2B2A
S113055011F460FF04C06F5F7F4F8F4F9F4F08956A
S11305600F931F93CF93DF93E0910C01F0910D0152
S1130570238120FD03C080E090E017C0C92FD82F4D
S1130580082F192F80910C0190910D010E940A03EC
S11305908F3F2FEF920779F3F80181938F010A9728
S11305A089F7319710828D2F9C2FDF91CF911F9166
S11305B00F9108950F931F93CF93DF93E0910E0152
S11305C0F0910F01238121FF1BC08C01D0E0C0E01A
S11305D0F80181918F0160910E0170910F01DB018F
S11305E01896ED91FC911997882331F00995892B80
S11305F079F3DFEFCFEFECCF8AE00995892B19F07F
S11306008FEF9FEF02C08D2F9C2FDF91CF911F9111
S11306100F910895CF93DF93EC012B8120FF33C01A
S113062026FF0AC02F7B2B838E819F8101969F8397
S11306308E838A8190E029C022FF0FC0E881F9816E
S11306408081082E000C990B009719F420622B83EB
S11306501AC03196F983E8830EC0EA85FB850995B3
S113066097FF09C02B81019611F080E201C080E15F
S1130670822B8B8308C02E813F812F5F3F4F3F83A6
S11306802E83992702C08FEF9FEFDF91CF910895BA
S1070690F894FFCF08
S10F0694537461727475702E2E2E0D00CC
S9030000FC
