S01200004C656444696D6D696E672E7372656338
S11300000C9436000C9440000C9440000C94400076
S11300100C9440000C9440000C9440000C9440005C
S11300200C9440000C9440000C9440000C9440004C
S11300300C9440000C9440000C9440000C9440003C
S11300400C9440000C9440000C9440000C9440002C
S11300500C9440000C9440000C9440000C9440001C
S11300600C9440000C9440000C94400011241FBEDA
S1130070CFEFD4E0DEBFCDBF0E9461000C94AA0094
S11300800C940000811105C082E085BD83E884BD25
S113009006C0813021F482E085BD81E884BD80E41E
S11300A08AB90895853608F084E62FEF829FC0014F
S11300B0112464E670E00E94820067BD8FE088BD71
S11300C0089581E00E94420080E00E9452002FEFD8
S11300D081EE94E0215080409040E1F700C00000A0
S11300E0C5E08C2F0E9452002FEF81EE94E0215046
S11300F080409040E1F700C00000CB5FC53688F334
S1130100C0E0EFCF97FB072E16F4009407D077FDDD
S113011009D00E94960007FC05D03EF49095819585
S11301209F4F0895709561957F4F0895AA1BBB1B3F
S113013051E107C0AA1FBB1FA617B70710F0A61BE3
S1130140B70B881F991F5A95A9F780959095BC0104
S10B0150CD010895F894FFCFDE
S9030000FC
